:100000000C94B2000C94DA000C94DA000C94DA0030
:100010000C94DA000C94DA000C94DA000C94DA00F8
:100020000C94DA000C94DA000C94DA000C94DA00E8
:100030000C94DA000C94DA000C94DA000C94DA00D8
:100040000C9461020C94DA000C94D1020C94AB0273
:100050000C94DA000C94DA000C94DA000C94DA00B8
:100060000C94DA000C94DA00504F5254423A20308B
:100070006200504F5254443A20306200444452428D
:100080003A20306200444452443A203062004F43E8
:100090005230423A203062004F435230413A2030D1
:1000A00062005443435230423A203062005443438A
:1000B0005230413A2030620054696D6572302063DD
:1000C0006F6E6669677572656400436F6E66696717
:1000D0007572696E672054696D657230004F4352C6
:1000E00030423A203062004F435230413A20306271
:1000F000005443435230423A20306200544343524A
:1001000030413A2030620052657175697265732022
:1001100065787465726E616C203956206261747402
:10012000657279207061636B2E0054657374696E1B
:1001300067206D6F746F72204120616E64204220D1
:100140007573696E672054696D65723020696E2021
:10015000666173742050574D206D6F646520332E97
:100160000000FA0311241FBECFEFD8E0DEBFCDBFE1
:1001700011E0A0E0B1E0E8E6F8E002C005900D92E1
:10018000A631B107D9F721E0A6E1B1E001C01D9287
:10019000AC3BB207E1F710E0C2EBD0E004C021971E
:1001A000FE010E942704C13BD107C9F70E94030347
:1001B0000C9432040C940000CF92DF92EF92FF92E5
:1001C0000F931F93CF93DF936C017A018B01C0E0F3
:1001D000D0E0CE15DF0581F0D8016D918D01D601FB
:1001E000ED91FC910190F081E02DC6010995892BDC
:1001F00011F02196EECF7E01C701DF91CF911F91C3
:100200000F91FF90EF90DF90CF900895089580E0D8
:1002100090E00895FC01538D448D252F30E0842F0C
:1002200090E0821B930B541710F0CF96089501971E
:100230000895FC01918D828D981761F0828DDF0108
:10024000A80FB11D5D968C91928D9F5F9F73928FC9
:1002500090E008958FEF9FEF0895FC01918D828DBE
:10026000981731F0828DE80FF11D858D90E008958B
:100270008FEF9FEF0895FC01918D228D892F90E0E3
:10028000805C9F4F821B91098F73992708958FE19E
:1002900091E00E943B0121E0892B09F420E0822FAC
:1002A0000895FC01848DDF01A80FB11DA35ABF4F33
:1002B0002C91848D90E001968F739927848FA68965
:1002C000B7892C93A089B1898C91837080648C93B9
:1002D000938D848D981306C00288F389E02D808168
:1002E0008F7D80830895EF92FF920F931F93CF939A
:1002F000DF93EC0181E0888F9B8D8C8D981305C076
:10030000E889F989808185FD26C0F62E0B8D10E0E5
:100310000F5F1F4F0F731127E02E8C8DE8120CC05A
:100320000FB607FCFACFE889F989808185FFF5CF00
:10033000CE010E945101F1CF8B8DFE01E80FF11D1E
:10034000E35AFF4FF0829FB7F8940B8FEA89FB893D
:10035000808180620AC09FB7F894EE89FF8960832C
:10036000E889F98980818370806480839FBF81E000
:1003700090E0DF91CF911F910F91FF90EF90089542
:100380000F931F93CF93DF938C01C0E0D0E0F8016F
:10039000EC0FFD1F6491662341F08FE191E00E9414
:1003A0007301892B11F02196F2CFCE01DF91CF910D
:1003B0001F910F910895CF93DF93EC01888D8823CF
:1003C000C9F0EA89FB89808185FD05C0A889B989C2
:1003D0008C9186FD0FC00FB607FCF5CF808185FF9D
:1003E000F2CFA889B9898C9185FFEDCFCE010E940B
:1003F0005101E7CFDF91CF91089580E090E0892B04
:1004000029F00E94470181110C940000089542E0F8
:1004100050E062E171E08FE191E00C94DC00CF9359
:10042000DF930E94C001EC010E9407028C0F9D1F08
:10043000DF91CF9108950F931F93CF93DF93CDB7A3
:10044000DEB7A1970FB6F894DEBF0FBECDBF90E028
:10045000A0E0B0E019A2FE01B196AC01BD0141706F
:10046000552766277727B695A79597958795405D79
:1004700042930097A105B10581F7309779F0DF012C
:100480000D900020E9F71197AD014E1B5F0BBF01E6
:100490008FE191E00E94DC008C0102C000E010E0DE
:1004A0000E940702800F911FA1960FB6F894DEBF3D
:1004B0000FBECDBFDF91CF911F910F9108950E9484
:1004C0002D041F920F920FB60F9211242F933F937A
:1004D0008F939F93AF93BF9380911B0190911C01C9
:1004E000A0911D01B0911E0130911A0123E0230F4C
:1004F0002D3720F40196A11DB11D05C026E8230F5C
:100500000296A11DB11D20931A0180931B019093A7
:100510001C01A0931D01B0931E01809116019091C2
:100520001701A0911801B09119010196A11DB11DEB
:100530008093160190931701A0931801B0931901AD
:10054000BF91AF919F918F913F912F910F900FBECF
:100550000F901F9018951F920F920FB60F921124B3
:100560002F933F934F935F936F937F938F939F93BB
:10057000AF93BF93EF93FF938FE191E00E945101FE
:10058000FF91EF91BF91AF919F918F917F916F916B
:100590005F914F913F912F910F900FBE0F901F9041
:1005A00018951F920F920FB60F9211242F938F93CD
:1005B0009F93EF93FF93E0912F01F09130018081A1
:1005C000E0913501F091360182FD12C09081809159
:1005D00038018F5F8F7320913901821751F0E091BC
:1005E0003801F0E0E15EFE4F958F8093380101C045
:1005F0008081FF91EF919F918F912F910F900FBE6E
:100600000F901F901895789484B5826084BD84B54E
:10061000816084BD85B5826085BD85B5816085BDFD
:1006200080916E00816080936E00109281008091B5
:10063000810082608093810080918100816080933D
:100640008100809180008160809380008091B10062
:1006500084608093B1008091B00081608093B0008D
:1006600080917A00846080937A0080917A00826021
:1006700080937A0080917A00816080937A008091E3
:100680007A00806880937A001092C100E0912F0177
:10069000F091300182E08083E0912B01F0912C01F8
:1006A0001082E0912D01F0912E018FEC8083109249
:1006B0003701E0913301F091340186E08083E091CD
:1006C0003101F0913201808180618083E0913101BC
:1006D000F0913201808188608083E0913101F09156
:1006E0003201808180688083E0913101F091320194
:1006F00080818F7D80838AE291E00E940F0287E0F3
:1007000091E00E940F028CEF90E00E94C00184B53E
:100710000E941B0281EF90E00E94C00185B50E94FB
:100720001B0287EE90E00E94C00187B50E941B0269
:100730008DED90E00E94C00188B50E941B028AECFA
:1007400090E00E940F0284B5836A84BD84B58F7ADD
:1007500084BD85B5877F85BD88E787BD88BD8AB1A3
:10076000806E8AB984B1876084B9299A2A985F9A81
:100770008DEA90E00E94C00184B50E941B0282EACB
:1007800090E00E94C00185B50E941B0288E990E0BC
:100790000E94C00187B50E941B028EE890E00E9473
:1007A000C00188B50E941B0285E890E00E94C0014C
:1007B0008AB10E941B028CE790E00E94C00184B1C4
:1007C0000E941B0282E790E00E94C0018BB10E9450
:1007D0001B0288E690E00E94C00185B10E941B02C6
:1007E00088EB90E00E940F0287B1806387B90E9476
:1007F000FD01FDCFEFE1F1E01382128288EE93E07C
:10080000A0E0B0E084839583A683B78384E091E081
:100810009183808385EC90E09587848784EC90E0D9
:100820009787868780EC90E0918B808B81EC90E0BD
:10083000938B828B82EC90E0958B848B86EC90E09E
:10084000978B868B118E128E138E148E0895EE0F59
:10085000FF1F0590F491E02D099481E090E0F89459
:080860000C943204F894FFCF60
:10086800000000007301DC000A01DB013B011901F3
:060878002D010D0A000035
:00000001FF
